:020000040800F2
:1000000020070020890100084D1900084519000843
:100010004919000845020008691A0008000000009C
:10002000000000000000000000000000511A00085D
:10003000490200080000000051190008551A000884
:10004000A3010008A3010008A3010008A301000800
:10005000A3010008A3010008A3010008A3010008F0
:10006000A3010008A3010008A3010008A3010008E0
:10007000A3010008A3010008A3010008A3010008D0
:10008000A3010008A3010008A3010008A3010008C0
:10009000A3010008A3010008A3010008A3010008B0
:1000A000A3010008A3010008A3010008A3010008A0
:1000B0005D1A0008A3010008A3010008A3010008BD
:1000C000A3010008A3010008A301000855190008B6
:1000D000A3010008A3010008A3010008A301000870
:1000E000A3010008A3010008A301000800F002F822
:1000F00000F03AF80AA090E8000C82448344AAF188
:100100000107DA4501D100F02FF8AFF2090EBAE885
:100110000F0013F0010F18BFFB1A43F0010318473B
:10012000381F0000581F0000103A24BF78C878C15B
:10013000FAD8520724BF30C830C144BF04680C60ED
:10014000704700000023002400250026103A28BF35
:1001500078C1FBD8520728BF30C148BF0B60704739
:100160001FB51FBD10B510BD00F036F81146FFF7E2
:10017000F7FF01F017FE00F054F803B4FFF7F2FFA9
:1001800003BC00F057F800000948804709480047C1
:10019000FEE7FEE7FEE7FEE7FEE7FEE7FEE7FEE737
:1001A000FEE7FEE704480549054A064B7047000094
:1001B000591A0008ED000008200100202007002047
:1001C0002003002020030020704770477047000084
:1001D00000487047100000207546FFF7F9FFAE4653
:1001E00005006946534620F00700854618B020B543
:1001F000FFF7D8FFBDE820404FF000064FF00007A2
:100200004FF000084FF0000BAC46ACE8C009ACE87A
:10021000C009ACE8C009ACE8C00921F007018D466F
:10022000704710B50446AFF300802046BDE810408B
:10023000FFF7A3BF01491820ABBEFEE7260002006E
:1002400070470000FEE700007047000080B590F89E
:100250002110022924D10268116821F00E011160D9
:100260002F211368C4F202018A4240F20401C4F251
:10027000020123F00103136016DD3023C4F20203F0
:100280009A421DD04423C4F202039A421CD0582340
:10029000C4F202039A421DD14FF4803322E000BF22
:1002A00004218163012080BD0823C4F202039A4225
:1002B0000ED01C23C4F202039A420BD1102311E08A
:1002C0004FF480730EE000BF4FF480530AE000BF8C
:1002D000012307E001F1680C4FF08073624508BF0D
:1002E0004FF480130B60416B4FF48072028401B1B4
:1002F0008847002080BD0000B0B5044600F020F91A
:10030000054640F20400C2F200000078611C18BFEC
:10031000044400BF00F014F9401BA042FAD3B0BD62
:100320002DE9F04F82B041F20042C4F201020E68A2
:100330000423904208BF0323002E009300F0F680B0
:1003400040F20C4E4FF6FF7CC4F2010E0022012455
:10035000C1F2100C4FF0000A4FF0000943E000BF5B
:10036000012502F00C040F27A7402BEA070705FA26
:1003700004F43C4343F82640D1F804B040F2004571
:10038000C4F201055FEACB332B6854BF23EA0803AC
:1003900043EA08032B606B685FEA8B3454BF23EA9F
:1003A000080343EA08036B605FEACB24AB6854BFE1
:1003B00023EA080343EA08035FEA8B24AB60DEF814
:1003C00000304FF0010454BF23EA080343EA080356
:1003D000CEF800300E680AF1010A36FA0AF302F18B
:1003E000040200F0A38004FA0AF816EA080FF1D01C
:1003F0004B68634512DC122B56D8DFE803F0350B4F
:100400004549555555555555555555555555554DC0
:10041000510000BFD1F80C9046E000BF4FF6FF77C7
:10042000C1F22107BB420FDC0027C1F21107BB421A
:100430001AD00027C1F21207BB4215D00027C1F223
:100440002107BB4210D02FE00027C1F22207BB4298
:100450000AD00027C1F23107BB4205D00027C1F204
:100460003207BB4220D100BF8B684BB1012B14BFB8
:10047000C0F81480C0F810804FF0080914E000BFE5
:100480004FF0040910E000BFCB6803F108090BE04E
:100490004FF0000908E000BFCB6803F1040903E056
:1004A000CB6803F10C0900BF13460546BAF1080FEB
:1004B00024BF203B04352E680F279F40BE4309FA16
:1004C00003F333432B60CB79DB067FF583AF41F237
:1004D0001804C4F2020423684FEA9A0643F00103A9
:1004E0002360236840F6000403F001030193019B9D
:1004F00040F20043C4F20103A3F57E7353F826B023
:10050000C4F20104A0420FD040F60044C4F201043A
:10051000A0423FF425AF41F20004C4F20104009D63
:10052000A04208BF02251CE700251AE702B0BDE87B
:10053000F08F0000002A08BF090401617047000025
:1005400040F21810C2F200000068704740F2040048
:1005500040F21811C2F20000C2F2000100780A68ED
:10056000104408607047000080B542F20000C4F2F9
:100570000200016841F010010160032000F08AF8D8
:100580000F2000F005F800F027F8002080BD0000E3
:1005900070B540F20406C2F2000640F20C01327857
:1005A000C2F200014FF47A730968B3FBF2F2044619
:1005B000B1FBF2F1084600F043FD0F2C4FF00105AE
:1005C00008D838B94FF0FF3021460022002500F04E
:1005D00035F87460284670BD82B041F21800C4F24C
:1005E00002000168022241F001010160016801F08E
:1005F000010101910199416841F0805141604068D9
:1006000000F08050009000980420C4F201000168BE
:1006100062F31A61016002B070470000002848BF11
:10062000704700F01F01012202FA01F14EF20012A0
:100630004009CEF2000242F82010704710B54EF685
:100640000C5CCEF2000CDCF80030C3F3022E8EF00E
:100650000704042C28BF0424BEF103034FF0FF3E1F
:100660000EFA04F438BF0023A14399400EFA03F3B5
:100670009A43114300F00F02043A624409010C321C
:1006800000F16043B0F1FF3FC8BF03F56442117051
:1006900010BD00004EF60C51CEF200010A684FF674
:1006A000FF031A4060F30A2242F0806040F0FD70C0
:1006B000086070472DE9F04381B0002800F0858084
:1006C00042F20008C4F202080446D8F800000D46C1
:1006D00000F0070088420CD2D8F8000020F0070094
:1006E0002843C8F80000D8F8000000F00700A8422E
:1006F0006BD1206841F204098107C4F2020917D5C1
:10070000410705D5D9F8001041F4E061C9F800109F
:10071000010705D5D9F8001041F46051C9F800105F
:10072000D9F80010A26821F0F0011143C9F80010B7
:10073000C00741D1D8F8000000F00700A8420CD94A
:10074000D8F8000020F007002843C8F80000D8F8C7
:10075000000000F00700A84237D12068410707D504
:10076000D9F80010E26821F4E0611143C9F80010E3
:10077000000708D5D9F80000216920F4605040EA4C
:10078000C100C9F80000D9F8002002F00C000828C8
:1007900041F20020C0F27A0050D142F24803C2F385
:1007A0008341C0F60003595CD2033BD440F60010ED
:1007B000C0F23D00484341E0606802280AD00128A9
:1007C0002AD159F8041C890308D4012001B0BDE8DE
:1007D000F08300BF59F8041C8901F6D5D9F8001040
:1007E00021F003010843C9F80000FFF7A9FE0646FF
:1007F00041F28837D9F80000616800F00C00B0EBD6
:10080000810F97D0FFF79CFE801BB842F2D90320DE
:1008100001B0BDE8F08300BF59F8041C8907D4D5A6
:10082000DCE700BFD9F8002042F23603C2F34042B1
:10083000C0F600039A5C4843B0FBF2F0D9F8001010
:1008400042F23802C1F30311C0F60002515C40F2DB
:100850000C0220FA01F140F20800C2F20000006828
:10086000C2F200021160FFF793FE002001B0BDE864
:10087000F08300002DE9F04182B0002868D00446E2
:10088000007841F20006C007C4F2020625D0706865
:1008900000F00C0004281BD0706800F00C00082841
:1008A00002D17068C00313D46068002800F068812A
:1008B000B0F5A02F00F07C81B0F5803F00F07C8186
:1008C000306820F480303060306820F4802076E199
:1008D0003068800301D56068D0B32078800718D5D0
:1008E000706810F00C0F07D0706800F00C0008283A
:1008F0006ED17068C0036BD43068800702D5206960
:10090000012825D13068616920F0F80040EAC10073
:100910003060207800071FD42078400732D4E56982
:1009200095B1706800F00C00082840F08F80012D10
:100930000ED07068216A00F480328A4208D1616A60
:1009400000F47010884203D1002002B0BDE8F081AD
:10095000012002B0BDE8F081A069002862D000202B
:10096000C4F242200121C0F88014FFF7E9FD0546DA
:10097000706A800700F18C80FFF7E2FD401B0228BF
:10098000F6D92AE1F06910F0805808D1F06940F0FA
:100990008050F061F06900F080500090009847F2BC
:1009A0000007C4F200073868C00529D4386840F44D
:1009B00080703860FFF7C4FD054600BF3868C00589
:1009C0001ED4FFF7BDFD401B6428F7D905E100BF29
:1009D0002069002840F20000C4F2422000F082802A
:1009E00001210160FFF7ACFD054600BF30688007BC
:1009F0003FF588AFFFF7A4FD401B0228F6D9ECE0D5
:100A0000E068002800F08080052800F09780012829
:100A100000F09880306A20F001003062306A20F0E7
:100A2000040092E00020C4F242200021C0F88014AB
:100A3000FFF786FD054600BF706A80077FF56CAF43
:100A4000FFF77EFD401B0228F6D9C6E00027C4F25E
:100A5000422700203866FFF773FD022D05460BD1B3
:100A60003068800140F1BE80FFF76AFD401B02281C
:100A70004FF00300F4D968E7306880017FF564AF78
:100A8000FFF75EFD401B02284FF00300F4D95CE73E
:100A900040F20C00C2F20000006844F6D351C1F2EB
:100AA0006201A0FB0101480A019000BF00BF01984C
:100AB000411E002801913FF42FAF00BF0198411E55
:100AC000002801913FF428AF00BF0198411E002883
:100AD00001913FF421AF00BF0198411E0028019110
:100AE000E4D119E700210160FFF72AFD054600BFA8
:100AF000306880077FF50DAFFFF722FD401B02280D
:100B00004FF00300F4D920E7306A20F00100306292
:100B1000306A20F004003062FFF712FD054641F212
:100B2000883700BF306A800720D5FFF709FD401BDA
:100B3000B8424FF00300F5D907E700BF306A40F034
:100B400004003062306A40F001003062FFF7F8FCC8
:100B5000054641F2883700BF306A800706D4FFF7A8
:100B6000EFFC401BB842F7D937E000BFB8F1000FE7
:100B70007FF4D5AEF06920F08050F061CFE600BF81
:100B8000306820F480303060306820F4802030609D
:100B9000FFF7D6FC054600BF306880037FF59DAEA9
:100BA000FFF7CEFC401B64284FF00300F4D9CCE6DD
:100BB000306840F480203060306840F4803030602D
:100BC000FFF7BEFC054600BF306880033FF585AEE9
:100BD000FFF7B6FC401B6428F6D9032002B0BDE83D
:100BE000F08100BF206AB0F5803F05D17168A2682E
:100BF00021F40031114371607168626A21F474114B
:100C000010430843706001203866FFF799FC0446E2
:100C1000306880013FF598AEFFF792FC001B022878
:100C20004FF00300F4D990E670470000B0B584B0EF
:100C3000044600684168826812F0400305D112F052
:100C4000010518BF11F0400512D1950708D511F024
:100C5000800505D0616C204604B0BDE8B04008476F
:100C600012F0600F18BF11F0200507D104B0B0BD1D
:100C7000216C204604B0BDE8B0400847BBB194F8F1
:100C80005130032B08D100210291C1680291806884
:100C90000290029804B0B0BD636D43F00403636535
:100CA00000230393C368039383680393039B12F0A9
:100CB00020020CD0626D42F00102626500220192B6
:100CC00082680192026822F040020260019A626D1D
:100CD000002ACBD04268890722F0E00242604FF040
:100CE000010284F851201FD0416841F6611521F0BE
:100CF00003014160E06CC0F6000538B14563FFF7C1
:100D0000A5FA18B1606D40F040006065A06C002845
:100D1000ACD04563FFF79AFA0028A7D0606D40F089
:100D20004000606504B0B0BD204604B0BDE8B040EE
:100D3000FFF77ABF70B538B10446406A30B1002081
:100D4000206104F1140007E0012070BD6068B0F577
:100D5000827F03D004F11C00002101600026A662FE
:100D600094F8510020B9204684F8506000F038F81B
:100D7000022084F8510094E8071001F4827103689E
:100D800002F4044223F040030360236911440CF48D
:100D90000062114403F002026369114403F001028E
:100DA000A369E569114403F40072114405F03802A7
:100DB000256A114405F08002A56A114305F400522A
:100DC00011430160042101EA13414160C16921F42A
:100DD0000061C1610120666584F85100304670BD34
:100DE00070B586B040F60004C4F20104006804F552
:100DF000205100268842049602D006B070BD00BF84
:100E000041F21800C4F20200016802AD41F48051C1
:100E10000160016801F4805101910199016841F07C
:100E2000040101600068294600F004000190019867
:100E3000A020029002200390032005902046FFF797
:100E40006FFA4020CDE90206204629460496FFF7B6
:100E500067FA232000210022FFF7F0FB2320FFF791
:100E6000DDFB06B070BD00002DE9F04381B0044603
:100E700090F85000012803D1022001B0BDE8F083B2
:100E80004FF001091D4616460F4684F85090FFF7B3
:100E900057FB94F85110012972D18046002F4FF072
:100EA000010018BF002E00F0C2800320002184F84A
:100EB000510061652763A686E686A163A187E18765
:100EC000A0682164B0F5004F2068616407D1016813
:100ED00021F040010160016841F480410160016836
:100EE000490603D4016841F0400101606168731E46
:100EF000E268B1FA81F1B3FA83F349095B09B2F50B
:100F0000006F41EA03013DD131B137F8021BC160E6
:100F10002763E18E0139E186E18E00296CD0691CDE
:100F20001BD000BF8168890706D4FFF709FBA0EB3F
:100F30000800A84208D348E0216B31F8022BC260B8
:100F40002163E08E0138E086E08E002854D02068CE
:100F500081688907E9D5EFE720688168890703D4AC
:100F6000FFF7EEFA08E000BF216B31F8022BC260F8
:100F70002163E08E0138E086E08E0028ECD13BE072
:100F8000022054E039B139780173206B01302063BD
:100F9000E08E0138E086E08E70B3681C0BD11BE058
:100FA000216B09780173206B01302063E08E0138DA
:100FB000E086E08E00B3206881688907F0D4FFF7EF
:100FC000BFFAA0EB0800A842F3D303202FE000BF34
:100FD000FFF7B6FAE08E78B1206881688907F7D507
:100FE000216B09780173206B01302063E08E01389A
:100FF000E086E08E0028EFD1204680212A46434635
:1010000000F0B4FC28B1606D40F020006065202045
:101010006065A06838B9002000902068C168009120
:10102000806800900098606D002818BF01200021A2
:1010300084F8519084F8501001B0BDE8F0830000AE
:10104000411E0020B0EB116F1CBF012070474EF213
:101050001002CEF2000251604EF62351CEF2000192
:10106000F0230B70072190601160704770470000FB
:101070007047000010B590F83C20012A4FF00202A2
:1010800033D080F83D200268D2F804E0D2F808C0DE
:101090000C682EF07003234340F2FF74C4F2000486
:1010A000A24253600ADCB2F1804F13D040F20043F9
:1010B000C4F200039A420DD011E000BF42F6004393
:1010C000C4F201039A4205D040F60003C4F20003C3
:1010D0009A4204D149682CF08003194391600121A0
:1010E000002280F83D1080F83C20104610BD000022
:1010F000002804BF0120704710B5044690F83D0059
:1011000028B9002084F83C00204600F067F802204F
:1011100084F83D00206840F2FF730268C4F20003C7
:1011200042F6004C9842C4F2010C15DCB0F1804F3D
:101130001AD040F20041C4F20001884214D0984213
:1011400018DCB0F1804F1DD040F20041C4F2000124
:10115000884217D01AE000BF604505D040F6000174
:10116000C4F200018842EAD1A16822F070020A4369
:101170009842E6DD604505D040F60001C4F200016A
:10118000884203D1216922F440720A43A36922F004
:101190008001D4F804E0E268194360450160C2624E
:1011A000C0F828E002D16169CCF83010012141611A
:1011B000002084F8461084F83E1084F83F1084F82C
:1011C000401084F8411084F8421084F8431084F8E9
:1011D000441084F8451084F83D1010BD80B582B0ED
:1011E0000068B0F1804F1CBF02B080BD41F21C000E
:1011F000C4F202000168002241F0010101600068B0
:10120000002100F00100019001981C20FFF716FA60
:101210001C2002B0BDE88040FFF700BA80B590F80E
:101220003C20012A4FF0020200F0BF8080F83D20F0
:10123000D0F800C04FF67772DCF8083023EA0202DB
:10124000CCF808200B683F2B1CDD5F2B20DD602BCA
:1012500050D0B3F5005F6DD0702B40F0A080D1E985
:1012600001E3C968DCF8082043EA0E0322F47F4258
:1012700043EA01211143CCF80810DCF8081041F0D2
:1012800077018AE01F2B29DC63B3102B2AD086E07C
:10129000402B63D0502B40F08280D1F804E0C96825
:1012A000DCF82030DCF8202022F00102CCF82020ED
:1012B000DCF8182022F0F00242EA011123F00A02C1
:1012C00042EA0E02CCF81810CCF82020DCF8081006
:1012D00041F0570121F020015FE000BF202B01D039
:1012E000302B5CD1DCF8081021F07001194341F07B
:1012F000070152E0D1F804E0C968DCF8203023F09F
:101300001003CCF82030DCF81830DCF8202023F46F
:10131000704322F0A00243EA013142EA0E12CCF8F7
:101320001810CCF82020DCF8081041F0670121F0FB
:10133000100132E0D1E901E3C968DCF8082043EA92
:101340000E0322F47F4243EA01211143CCF8081036
:10135000DCF8081041F480411FE000BFD1F804E040
:10136000C968DCF82030DCF8202022F00102CCF83B
:101370002020DCF8182022F0F00242EA011123F0CC
:101380000A0242EA0E02CCF81810CCF82020DCF851
:10139000081041F0470121F03001CCF8081001217C
:1013A000002280F83D1080F83C20104680BD0000EF
:1013B0007047000010B5016804460869800744BF03
:1013C000C8685FEA807039D40869400744BFC868BC
:1013D0005FEA40703ED40869000744BFC8685FEA0E
:1013E000007045D40869C00644BFC8685FEAC060A1
:1013F0004AD40869C0071CBFC8685FEAC07051D1F1
:101400000869000644BFC8685FEA006052D40869F2
:10141000400644BFC8685FEA406053D4086980064C
:1014200046BFC8685FEA806010BD6FF020022046AA
:101430000A61BDE81040FFF71BBE00BF6FF002005D
:101440000861012020778869800743D02046FFF794
:10145000AFFF45E06FF00400086102202077886943
:1014600010F4407F40D02046FFF7A2FF42E000BFCB
:101470006FF00800086104202077C86980073DD01C
:101480002046FFF795FF3FE06FF01000086108204D
:101490002077C86910F4407F3AD02046FFF788FFD4
:1014A0003CE000BF6FF001000861204600F046FA02
:1014B0002168A5E76FF0800008612046FFF7D6FDA0
:1014C0002168A4E76FF040000861204600F038FA78
:1014D0002168A3E7204600F04BF8204600F0BCF955
:1014E0002168002020776FE7204600F041F8204671
:1014F00000F0B2F92168002020776CE7204600F068
:1015000037F8204600F0A8F921680020207769E725
:10151000204600F02DF8204600F09EF921680020BA
:10152000207766E780B586B000680021B0F1804F73
:10153000049101D006B080BD41F21800C4F202004F
:10154000016841F004010160006802A900F0040094
:10155000019001980120029002200390059040F62E
:101560000000C4F20100FEF7DBFE06B080BD000003
:10157000704700002DE9F04390F83C30012B04BF88
:101580000220BDE8F0834FEAB202032A00F2E580B0
:10159000DFE802F0023A76B0036842F600461A6AC3
:1015A000C4F2010622F001021A621D6A1A465C6842
:1015B00052F818CFB3428E68D1F800E025F002054A
:1015C00045EA06050CD1CE68D1E9057824F44074CB
:1015D00025F00C0526F004063C43354344EA080494
:1015E0002CF0730747EA0E075C609F614F6809693A
:1015F0005F631D629F6947F008079F619F6927F03D
:1016000004079F61A6E000BF036842F600461A6A1D
:10161000C4F2010622F010021A621D6A1A46D3F8BB
:1016200004C052F8184FB3428E68D1F800E025F09C
:10163000200545EA06150FD1CE68D1E905986FF06F
:10164000400707EA06162CF4406725F0C00547EA74
:101650008907354347EA880C24F4E64444EA0E2718
:10166000C3F804C09F614F6809699F631D629F6949
:1016700047F400679F619F6927F480679F6168E076
:10168000036842F600461A6AC4F2010622F4807228
:101690001A621D6A1A46D3F804C052F81CEFB3420E
:1016A0008E680C6825F4007545EA06250FD1CE68D2
:1016B000D1E90598360240F2FF47BE432CF440576B
:1016C00025F4406547EA0917354347EA081C2EF020
:1016D00073072743C3F804C0DF614F680969DF63FC
:1016E0001D62DF6947F00807DF61DF6927F0040743
:1016F000DF612FE0036842F600471A6AC4F201076F
:1017000022F480521A621A46D3F820C05D6852F85B
:101710001C4FD1F800E08E68BB4204D14F6925F41C
:10172000804545EA87152CF4005747EA063724F42C
:10173000E64646EA0E265D60DE614E6809691E6473
:101740001F62DF6947F40067DF61DF6927F48067A4
:10175000DF610902136819431160002180F83C1011
:101760000846BDE8F0830000002804BF0120704750
:1017700010B5044690F83D0028B9002084F83C00DC
:10178000204600F067F8022084F83D00206840F20F
:10179000FF730268C4F2000342F6004C9842C4F2A0
:1017A000010C15DCB0F1804F1AD040F20041C4F2B8
:1017B0000001884214D0984218DCB0F1804F1DD04F
:1017C00040F20041C4F20001884217D01AE000BF85
:1017D000604505D040F60001C4F200018842EAD11C
:1017E000A16822F070020A439842E6DD604505D008
:1017F00040F60001C4F20001884203D1216922F4BD
:1018000040720A43A36922F08001D4F804E0E26840
:10181000194360450160C262C0F828E002D16169E5
:10182000CCF8301001214161002084F8461084F882
:101830003E1084F83F1084F8401084F8411084F87A
:10184000421084F8431084F8441084F8451084F85A
:101850003D1010BD704700007047000041B10829DD
:1018600010D0042914BF00F1410200F13F020BE047
:1018700090F83E20012A1CBF01207047022280F808
:101880003E2013E000F140021278012A1CBF012023
:1018900070470222082907D0042914BF80F841208C
:1018A00080F83F2002E000BF80F84020006801F08F
:1018B0001F010122036A8A4023EA02010162036ACE
:1018C00042F64441C4F201011A43A1F14403984293
:1018D00002620FD040F2FF71C4F20001884213DCB3
:1018E000B0F1804F1CD040F20041C4F200018842A8
:1018F00016D01CE00A6842F400420A6040F2FF7110
:10190000C4F200018842EBDD42F60041C4F201015D
:10191000884205D040F60001C4F20001884206D199
:10192000816801F00701062904BF002070470168A3
:1019300041F0010101600020704700007047000085
:1019400070470000FEE70000FEE70000FEE7000031
:101950007047000040F2C000C2F20000FFF766B915
:10196000406A0021C187C186FFF75EB92DE9F041C9
:1019700082B01E4690460D460446FEF7E1FD301A41
:1019800000EB0807FEF7DCFD40F20C01C2F200019B
:101990000968C1F3CB317943019121688A682A40F3
:1019A000AA4227D1064618F101001FD0FEF7C8FD54
:1019B000801BB84222D2019801990028A1F10101AF
:1019C00001912168896808BF074601EA0500A8421D
:1019D000ECD00FE088682840A8420BD188682840E6
:1019E000A84207D188682840A84203D188682840C7
:1019F000A842EFD0002002B0BDE8F081D4E9000198
:101A00004268B1F5827F22F0E00242600AD1A1680B
:101A1000B1F5004F02D0B1F5806F03D1016821F01C
:101A200040010160A16AB1F5005F07D1016821F4AE
:101A300000510160016841F400510160012084F807
:101A40005100002084F85000032002B0BDE8F0816E
:101A500070470000FEF77ABD7047000040F2740046
:101A6000C2F20000FFF7A6BCFEE70000F0B581B0AF
:101A700040F2BC04C2F20004082040F60C062080AC
:101A8000C4F20106306840F2C00520F01000C2F236
:101A9000000530602846214602220A230227FFF76C
:101AA000E3F93068214640F01000306007202080C4
:101AB0003068022220F01000306028460A23FFF729
:101AC000D3F93068214640F01000306006202080B5
:101AD0003068022220F01000306028460A23FFF709
:101AE000C3F93068214640F01000306005202080A6
:101AF0003068022220F01000306028460A23FFF7E9
:101B0000B3F93068214640F0100030600420208096
:101B10003068022220F01000306028460A23FFF7C8
:101B2000A3F93068214640F0100030600320208087
:101B30003068022220F01000306028460A23FFF7A8
:101B400093F93068214640F01000306027803068FB
:101B5000022220F01000306028460A23FFF784F9A3
:101B60003068214640F0100030600120208030684D
:101B7000022220F01000306028460A23FFF774F993
:101B80003068214640F0100030600020208030682E
:101B9000022220F01000306028460A23FFF764F983
:101BA000306840F01000306001B0F0BD2DE9F04128
:101BB000012140F2BC0401FA00F7C2F2000440F631
:101BC0000C0621706770C4F20106306840F2C0084C
:101BD00020F01000C2F20008306040462146022288
:101BE0000A230225FFF740F93068214640F0100033
:101BF0003060257067703068022220F0100030607D
:101C000040460A23FFF730F93068214640F01000C3
:101C100030600320207067703068022220F01000CE
:101C2000306040460A23FFF71FF93068214640F034
:101C3000100030600420207067703068022220F0AD
:101C40001000306040460A23FFF70EF93068214645
:101C500040F010003060052020706770306802226C
:101C600020F01000306040460A23FFF7FDF830688E
:101C7000214640F010003060062020706770306808
:101C8000022220F01000306040460A23FFF7ECF8F3
:101C90003068214640F010003060072020706770E7
:101CA0003068022220F01000306040460A23FFF71F
:101CB000DBF83068214640F01000306008202070CA
:101CC00067703068022220F01000306040460A231E
:101CD000FFF7CAF8306840F010003060BDE8F081CE
:101CE00070B540F2BC04C2F20004092040F60C06B4
:101CF0002080C4F20106306840F2C00520F01000D8
:101D0000C2F2000530602846214602220A23FFF76E
:101D1000ABF83068214640F01000306040F60A1001
:101D200020803068022220F01000306028460A230C
:101D3000FFF79AF83068214640F01000306040F21A
:101D40000B7020803068022220F01000306028469E
:101D50000A23FFF789F83068214640F01000306010
:101D60004FF4867020803068022220F0100030602E
:101D700028460A23FFF778F83068214640F0100023
:101D800030600F2020803068022220F01000306088
:101D900028460A23FFF768F8306840F010003060EA
:101DA00070BD000092B0FEF7DFFB00240120CDE9FA
:101DB0000B44CDE9094406900A904FF4E0104FF42B
:101DC000803102250F9006A8CDE90714CDE90D5109
:101DD000FEF750FD20B1EFF3108072B6FEE700BFB2
:101DE0000F20CDE901054FF48060CDE9040401A87E
:101DF00002210394FEF75EFC20B1EFF3108072B66F
:101E0000FEE700BF41F21800C4F20200016840F68C
:101E1000000441F0200101600168C4F2010401F0F6
:101E20002001069106990168002241F00401016039
:101E30000068182100F00400069006982046182536
:101E40000026FEF777FB0120CDE907060220099066
:101E500006A920460695FEF763FA40F2C00004F595
:101E60002051C2F200004FF482724FF40073102729
:101E700080E846000A21C0E90366C0E90563C7613E
:101E8000C0E90866C0E90A61FEF754FF20B1EFF32C
:101E9000108072B6FEE700BF40F27005C2F2000586
:101EA0004FF08041284640F8041F40F29F5140F215
:101EB000E7320496CDE90266CDE91066CDE90B66FE
:101EC000CDE90966C0E90116C0E903268661FFF77E
:101ED0000FF928B1EFF3108072B600BFFEE700BF24
:101EE0004FF480502C1D019001A92046FFF796F970
:101EF00020B1EFF3108072B6FEE700BF2046FFF777
:101F000033FC28B1EFF3108072B600BFFEE700BFCC
:101F100010A92046FFF7AEF820B1EFF3108072B69B
:101F2000FEE700BF602006904FF0000A06A9204699
:101F30000022CDE907AACDF828A0FFF71BFB28B1A6
:101F4000EFF3108072B600BFFEE700BF2046FFF738
:101F5000E9FAFFF7C5FEFFF789FD20460021FFF7EC
:101F60007DFC40F20004C2F200044FF484784FF08C
:101F70000809012709E000BFA17885F800A0013118
:101F8000A170002808BF84F800906078D0B1217853
:101F900001386070002000292870EDD0002100BFBA
:101FA000C9B2A07807FA01F1C9B200F027F83220CF
:101FB000FEF7A2F92878411C2078CAB28242297023
:101FC000EED3D9E72078A4F80180461E30062670AB
:101FD00085F800A009D000BFF0B2FFF7E7FD32207E
:101FE000FEF78AF9013E3006F6D10020FFF7DEFD4C
:101FF0003220FEF781F92078C3E7000010B540F2E7
:10200000BC02C2F2000240F60C0410705170C4F21F
:1020100001042068114620F01000206040F2C0004A
:10202000C2F2000002220A23FEF71EFF206840F0E1
:102030001000206010BD0102000000000000000040
:10204000010203040607080902030405060708093C
:102050000A0B0C0D0E0F1010782000080000002055
:10206000100000002801000888200008100000204F
:1020700010070000440100080808010001000000EA
:08208000100000000024F40030
:04000005080000ED02
:00000001FF
