:020000040800F2
:100000005007002089010008E5130008DD130008EF
:10001000E113000845020008C914000800000000B0
:10002000000000000000000000000000ED130008C8
:100030006102000800000000E9130008F113000845
:10004000A3010008A3010008A3010008A301000800
:10005000A3010008A3010008A3010008A3010008F0
:10006000A3010008A3010008A3010008A3010008E0
:10007000A3010008A3010008490200085502000876
:10008000A3010008A3010008A3010008A3010008C0
:10009000A3010008A3010008A3010008A3010008B0
:1000A000A3010008A3010008A3010008A3010008A0
:1000B000A3010008A3010008A3010008A301000890
:1000C000A3010008A3010008A3010008A301000880
:1000D000A3010008BD140008A3010008A301000843
:1000E000A3010008A3010008A301000800F002F822
:1000F00000F03AF80AA090E8000C82448344AAF188
:100100000107DA4501D100F02FF8AFF2090EBAE885
:100110000F0013F0010F18BFFB1A43F0010318473B
:100120006415000084150000103A24BF78C878C117
:10013000FAD8520724BF30C830C144BF04680C60ED
:10014000704700000023002400250026103A28BF35
:1001500078C1FBD8520728BF30C148BF0B60704739
:100160001FB51FBD10B510BD00F031F81146FFF7E7
:10017000F7FF01F0ABF900F04FF803B4FFF7F2FF1F
:1001800003BC00F057F800000948804709480047C1
:10019000FEE7FEE7FEE7FEE7FEE7FEE7FEE7FEE737
:1001A000FEE7FEE704480549054A064B7047000094
:1001B000F5130008ED000008500100205007002052
:1001C0005003002050030020704770477047754669
:1001D00000F02CF8AE4605006946534620F00700B3
:1001E000854618B020B5FFF7DDFFBDE820404FF091
:1001F00000064FF000074FF000084FF0000BAC4630
:10020000ACE8C009ACE8C009ACE8C009ACE8C0097A
:1002100021F007018D46704710B50446AFF300800A
:100220002046BDE81040FFF7A8BF00000048704717
:100230002000002001491820ABBEFEE72600020086
:1002400070470000FEE7000040F2C400C2F2000068
:1002500000F088B840F28000C2F2000000F082B8DE
:1002600070470000EFF3108072B600BFFEE7000099
:10027000014690F82100022816D10868D1E90FC381
:10028000026822F00E020260026822F0010202609F
:10029000012000FA03F2CCF8042081F821000020AC
:1002A000002281F82020704704208863012000226A
:1002B00081F820207047000080B590F821100229B5
:1002C00024D10268116821F00E0111602F211368FA
:1002D000C4F202018A4240F20401C4F2020123F096
:1002E0000103136016DD3023C4F202039A421DD0CD
:1002F0004423C4F202039A421CD05823C4F20203DE
:100300009A421DD14FF4803322E000BF0421816363
:10031000012080BD0823C4F202039A420ED01C23A0
:10032000C4F202039A420BD1102311E04FF4807300
:100330000EE000BF4FF480530AE000BF012307E046
:1003400001F1680C4FF08073624508BF4FF48013D1
:100350000B60416B4FF48072028401B1884700202A
:1003600080BD000010B5D0E90FCE0168DCF8003088
:100370000A6823FA0EF35C072AD512F0040427D08A
:100380000A68920603D40A6822F004020A602F2247
:10039000C4F20202914240F20402C4F2020259DDA8
:1003A0003023C4F20203994270D04423C4F2020302
:1003B000994271D05823C4F20203994278D14FF484
:1003C00080231360C16A002940F097806EE000BF6F
:1003D0009C0727D512F0020424D00A68920606D49E
:1003E0000A6822F00A020A60012280F821202F22E6
:1003F000C4F20202914240F20402C4F2020239DD68
:100400003023C4F2020399425ED04423C4F20203B3
:1004100099425DD05823C4F2020399425ED14FF451
:10042000003363E01B0741D512F0080208BF10BD7E
:100430000A6822F00E020A60012101FA0EF2CCF8DD
:1004400004208163016B4FF480720029028454D12F
:100450002CE000BF0823C4F20203994222D01C23DF
:10046000C4F20203994223D140231360C16A0029D8
:1004700043D11BE00823C4F2020399422CD01C2371
:10048000C4F20203994229D120232FE04FF4806364
:100490001360C16A89BB09E04FF480431360C16AED
:1004A00059BB03E004231360C16A31BB10BD00BF18
:1004B00002F168044FF08063A14208BF4FF480034B
:1004C0001360C16AC9B9F1E74FF400730EE000BFD1
:1004D0004FF400530AE000BF022307E002F1680472
:1004E0004FF00073A14208BF4FF400131360816AFC
:1004F0000022002980F82020D8D0BDE8104008470D
:10050000002804BF012070472DE9F04101684FF633
:10051000F872CBF6FD724CF6CD430A44CCF6CC43D0
:10052000A2FB03236FF0030707EA93030027C4F23B
:10053000020700F1040E00F11008C0E90F739EE8F5
:10054000045098E870010B6843F6F077BB431A43F8
:1005500042EA0C0242EA0E0222432A43324342EAB2
:1005600008020A6000214FF4807281630284BDE8B2
:10057000F041084670470000B0B5044600F028F985
:10058000054640F20000C2F200000078611C18BF6E
:10059000044400BF00F01CF9401BA042FAD3B0BDD8
:1005A0002DE9F04F82B041F20042C4F201020E6820
:1005B0000423904208BF0323002E009300F0F6802E
:1005C00040F20C4E4FF6FF7CC4F2010E00220124D3
:1005D000C1F2100C4FF0000A4FF0000943E000BFD9
:1005E000012502F00C040F27A7402BEA070705FAA4
:1005F00004F43C4343F82640D1F804B040F20045EF
:10060000C4F201055FEACB332B6854BF23EA080329
:1006100043EA08032B606B685FEA8B3454BF23EA1C
:10062000080343EA08036B605FEACB24AB6854BF5E
:1006300023EA080343EA08035FEA8B24AB60DEF891
:1006400000304FF0010454BF23EA080343EA0803D3
:10065000CEF800300E680AF1010A36FA0AF302F108
:10066000040200F0A38004FA0AF816EA080FF1D099
:100670004B68634512DC122B56D8DFE803F0350BCC
:100680004549555555555555555555555555554D3E
:10069000510000BFD1F80C9046E000BF4FF6FF7745
:1006A000C1F22107BB420FDC0027C1F21107BB4298
:1006B0001AD00027C1F21207BB4215D00027C1F2A1
:1006C0002107BB4210D02FE00027C1F22207BB4216
:1006D0000AD00027C1F23107BB4205D00027C1F282
:1006E0003207BB4220D100BF8B684BB1012B14BF36
:1006F000C0F81480C0F810804FF0080914E000BF63
:100700004FF0040910E000BFCB6803F108090BE0CB
:100710004FF0000908E000BFCB6803F1040903E0D3
:10072000CB6803F10C0900BF13460546BAF1080F68
:1007300024BF203B04352E680F279F40BE4309FA93
:1007400003F333432B60CB79DB067FF583AF41F2B4
:100750001804C4F2020423684FEA9A0643F0010326
:100760002360236840F6000403F001030193019B1A
:1007700040F20043C4F20103A3F57E7353F826B0A0
:10078000C4F20104A0420FD040F60044C4F20104B8
:10079000A0423FF425AF41F20004C4F20104009DE1
:1007A000A04208BF02251CE700251AE702B0BDE8F9
:1007B000F08F0000C26802EA0103914341EA03415D
:1007C00001617047002A08BF0904016170470000F9
:1007D00040F24C10C2F200000068704740F2000086
:1007E00040F24C11C2F20000C2F2000100780A6827
:1007F000104408607047000080B542F20000C4F267
:100800000200016841F010010160032000F08AF845
:100810000F2000F005F800F027F8002080BD000050
:1008200070B540F20006C2F2000640F208013278CC
:10083000C2F200014FF47A730968B3FBF2F2044686
:10084000B1FBF2F1084600F05FFB0F2C4FF0010501
:1008500008D838B94FF0FF3021460022002500F0BB
:1008600035F87460284670BD82B041F21800C4F2B9
:1008700002000168022241F001010160016801F0FB
:10088000010101910199416841F080514160406846
:1008900000F08050009000980420C4F2010001682C
:1008A00062F31A61016002B070470000002848BF7F
:1008B000704700F01F01012202FA01F14EF200120E
:1008C0004009CEF2000242F82010704710B54EF6F3
:1008D0000C5CCEF2000CDCF80030C3F3022E8EF07C
:1008E0000704042C28BF0424BEF103034FF0FF3E8D
:1008F0000EFA04F438BF0023A14399400EFA03F323
:100900009A43114300F00F02043A624409010C3289
:1009100000F16043B0F1FF3FC8BF03F564421170BE
:1009200010BD00004EF60C51CEF200010A684FF6E1
:10093000FF031A4060F30A2242F0806040F0FD702D
:10094000086070472DE9F04381B0002800F08580F1
:1009500042F20008C4F202080446D8F800000D462E
:1009600000F0070088420CD2D8F8000020F0070001
:100970002843C8F80000D8F8000000F00700A8429B
:100980006BD1206841F204098107C4F2020917D52E
:10099000410705D5D9F8001041F4E061C9F800100D
:1009A000010705D5D9F8001041F46051C9F80010CD
:1009B000D9F80010A26821F0F0011143C9F8001025
:1009C000C00741D1D8F8000000F00700A8420CD9B8
:1009D000D8F8000020F007002843C8F80000D8F835
:1009E000000000F00700A84237D12068410707D572
:1009F000D9F80010E26821F4E0611143C9F8001051
:100A0000000708D5D9F80000216920F4605040EAB9
:100A1000C100C9F80000D9F8002002F00C00082835
:100A200041F20020C0F27A0050D141F27463C2F367
:100A30008341C0F60003595CD2033BD440F600105A
:100A4000C0F23D00484341E0606802280AD0012816
:100A50002AD159F8041C890308D4012001B0BDE84B
:100A6000F08300BF59F8041C8901F6D5D9F80010AD
:100A700021F003010843C9F80000FFF7A9FE06466C
:100A800041F28837D9F80000616800F00C00B0EB43
:100A9000810F97D0FFF79CFE801BB842F2D903204C
:100AA00001B0BDE8F08300BF59F8041C8907D4D514
:100AB000DCE700BFD9F8002041F25A63C2F340429C
:100AC000C0F600039A5C4843B0FBF2F0D9F800107E
:100AD00041F25C62C1F30311C0F60002515C40F2C6
:100AE000080220FA01F140F20400C2F2000000689E
:100AF000C2F200021160FFF793FE002001B0BDE8D2
:100B0000F083000040F2080041F20401C2F200004C
:100B1000C4F202010068096841F26C62C1F302216B
:100B2000C0F60002515CC8407047000040F2080067
:100B300041F20401C2F20000C4F202010068096837
:100B400041F26C62C1F3C221C0F60002515CC840A0
:100B5000704700002DE9F04182B0002868D00446BB
:100B6000007841F20006C007C4F2020625D0706882
:100B700000F00C0004281BD0706800F00C0008285E
:100B800002D17068C00313D46068002800F0688147
:100B9000B0F5A02F00F07C81B0F5803F00F07C81A3
:100BA000306820F480303060306820F4802076E1B6
:100BB0003068800301D56068D0B32078800718D5ED
:100BC000706810F00C0F07D0706800F00C00082857
:100BD0006ED17068C0036BD43068800702D520697D
:100BE000012825D13068616920F0F80040EAC10091
:100BF0003060207800071FD42078400732D4E569A0
:100C000095B1706800F00C00082840F08F80012D2D
:100C10000ED07068216A00F480328A4208D1616A7D
:100C200000F47010884203D1002002B0BDE8F081CA
:100C3000012002B0BDE8F081A069002862D0002048
:100C4000C4F242200121C0F88014FFF7C1FD05461F
:100C5000706A800700F18C80FFF7BAFD401B022804
:100C6000F6D92AE1F06910F0805808D1F06940F017
:100C70008050F061F06900F080500090009847F2D9
:100C80000007C4F200073868C00529D4386840F46A
:100C900080703860FFF79CFD054600BF3868C005CE
:100CA0001ED4FFF795FD401B6428F7D905E100BF6E
:100CB0002069002840F20000C4F2422000F0828047
:100CC00001210160FFF784FD054600BF3068800701
:100CD0003FF588AFFFF77CFD401B0228F6D9ECE01A
:100CE000E068002800F08080052800F09780012847
:100CF00000F09880306A20F001003062306A20F005
:100D0000040092E00020C4F242200021C0F88014C8
:100D1000FFF75EFD054600BF706A80077FF56CAF88
:100D2000FFF756FD401B0228F6D9C6E00027C4F2A3
:100D3000422700203866FFF74BFD022D05460BD1F8
:100D40003068800140F1BE80FFF742FD401B022861
:100D50004FF00300F4D968E7306880017FF564AF95
:100D6000FFF736FD401B02284FF00300F4D95CE783
:100D700040F20800C2F20000006844F6D351C1F20C
:100D80006201A0FB0101480A019000BF00BF019869
:100D9000411E002801913FF42FAF00BF0198411E72
:100DA000002801913FF428AF00BF0198411E0028A0
:100DB00001913FF421AF00BF0198411E002801912D
:100DC000E4D119E700210160FFF702FD054600BFED
:100DD000306880077FF50DAFFFF7FAFC401B022853
:100DE0004FF00300F4D920E7306A20F001003062B0
:100DF000306A20F004003062FFF7EAFC054641F259
:100E0000883700BF306A800720D5FFF7E1FC401B20
:100E1000B8424FF00300F5D907E700BF306A40F051
:100E200004003062306A40F001003062FFF7D0FC0D
:100E3000054641F2883700BF306A800706D4FFF7C5
:100E4000C7FC401BB842F7D937E000BFB8F1000F2C
:100E50007FF4D5AEF06920F08050F061CFE600BF9E
:100E6000306820F480303060306820F480203060BA
:100E7000FFF7AEFC054600BF306880037FF59DAEEE
:100E8000FFF7A6FC401B64284FF00300F4D9CCE622
:100E9000306840F480203060306840F4803030604A
:100EA000FFF796FC054600BF306880033FF585AE2E
:100EB000FFF78EFC401B6428F6D9032002B0BDE882
:100EC000F08100BF206AB0F5803F05D17168A2684B
:100ED00021F40031114371607168626A21F4741168
:100EE00010430843706001203866FFF771FC044628
:100EF000306880013FF598AEFFF76AFC001B0228BE
:100F00004FF00300F4D990E6411E0020B0EB116FC2
:100F10001CBF012070474EF21002CEF20002516059
:100F20004EF62351CEF20001F0230B7007219060A2
:100F3000116070477047000070470000B0B582B084
:100F4000026805461068D368546900F02F01202913
:100F500003F0200106D129B1284602B0BDE8B04017
:100F600000F050BA5FEA007C1EBF04F0010E03F4EB
:100F7000907414EB0E0455D1296B012905D110F0A2
:100F8000100118BF13F0100136D1010622D513F05D
:100F900080011FD095F83D00212841D1A868B0F507
:100FA000805F03D12869002800F0F680286A411C80
:100FB000296200785060E88C01380104E8842FD160
:100FC000D06820F08000D060D06840F04000D06051
:100FD00002B0B0BD400623D513F0400020D0D06849
:100FE000202120F04000D060284685F83D1002B056
:100FF000BDE8B04000F0E6B9002001901068019013
:101000005068019001985069400613D4A88DE98D6D
:10101000EB8D002B1CBF401A5FEA004140F0A4801A
:1010200002B0B0BDC40718BF13F480732CD14307BE
:1010300030D436E0A86B01684B689CB2002CEFD02E
:10104000A98D8C42ECD2EB858369202B17D0D16817
:1010500021F48071D160516921F001015161516920
:1010600021F040015161202185F83E1000212963C3
:10107000D16821F01001D160FFF7FAF8A98DE88D51
:10108000081A81B2284682E02B6C43F001032B64DE
:10109000430706D5BEF1000F03D02B6C43F00203CB
:1010A0002B64830706D5BEF1000F03D02B6C43F0F1
:1010B00004032B64BCF1000F06D551EA0E0303D0E4
:1010C0002B6C43F008032B642B6C002BA8D010F082
:1010D000200018BF002903D0284600F093F92A68A1
:1010E0005069296C00F0400001F0080140182DD033
:1010F000D06820F49070D060506920F001005061F9
:10110000286B012803D1D06820F01000D060202087
:1011100085F83E0000202863506940061ED55069BE
:1011200020F040005061A86BC0B141F2F931C0F627
:1011300000014163FFF7C0F800283FF471AFA86BCE
:10114000416B02B0BDE8B040084700BF2846FFF73A
:10115000F3FE0020286402B0B0BD00BF284602B0F4
:10116000BDE8B040FFF7E8BED16821F49071D160CE
:10117000516921F001015161202185F83E100021C3
:101180002963D16821F0100381B22846D36002B0F0
:10119000BDE8B040FFF7CEBE286A30F8021B6FF3FF
:1011A0005F215160286206E7002804BF01207047D4
:1011B00010B5044690F83D0028B9002084F83C00A2
:1011C000204600F05FF8242084F83D002068D4E930
:1011D0000212C36823F40053C360036923F440532D
:1011E0001A430261D4E904231143C268194341F24E
:1011F0000C639A431143C1604169A26921F44071B3
:10120000114343F60002C4F201029042416103D04F
:10121000FFF778FC02E000BFFFF788FC6268192145
:1012200048439100B0FBF1F048F21F51C5F2EB11B9
:10123000A0FB01235A096FF0630302FB0300322372
:1012400003EB0010A0FB0101F02303EA5113206817
:1012500003EB0212C1F3431111448160016921F4CF
:1012600090410161416921F02A014161C16841F465
:101270000051C16000202021206484F83D1084F8D2
:101280003E1010BD2DE9F04186B040F60005044641
:10129000C4F20105006805F5405100278842049713
:1012A00002D006B0BDE8F08141F21800C4F202009D
:1012B000016802AE41F480410160016840F24408D7
:1012C00001F48041019101990168C4F2020841F0E2
:1012D000040101600068314600F0040001900198AB
:1012E0004FF40070029002200390032005902846DE
:1012F000FFF756F94FF48060CDE9020728463146E2
:101300000497FFF74DF940F2C405C2F20005102022
:101310008026C5E900802846C5E90276C5E904773C
:10132000C5E90677FFF7ECF8002818BFFEF79AFF2B
:1013300065636C6240F2800508F11400C2F200059A
:101340000021C5E900012846C5E90216C5E90411D6
:10135000C5E90611FFF7D4F8002818BFFEF782FF91
:10136000252000210022A5636C62FFF7AFFA25203B
:10137000FFF79CFA06B0BDE8F0810000704700005E
:10138000034690F83D0020280AD100294FF00100C3
:1013900018BF002A00D1704793F83C00012801D102
:1013A000022070471962002021219A84DA8418648F
:1013B00083F83D10196883F83C00CA6842F0800247
:1013C000CA60704740F2081040F20C01C2F20000FF
:1013D000C2F200010E22FFF7D3BF0000FEE70000BB
:1013E000FEE70000FEE700007047000070470000C5
:1013F000FFF7F4B970470000406A0021C185C1843D
:10140000FFF79ABD81B090F83E10222920D1836861
:10141000B3F5805F08D10169002941D000F12801AE
:101420000A6803685B680AE0014651F8282F13B97F
:101430000369002BF5D003685B6803F07F0313702A
:101440000A6801320A60C18D01390A04C18501D0E0
:1014500001B070470168CA6822F02002CA60CA68F9
:1014600022F48072CA604A6922F001024A61202295
:1014700080F83E20026B012A1CD100220263CB6857
:1014800023F01003CB600B68DB0605D500920A68D9
:101490000092496800910099818D01B0FFF74ABD23
:1014A0000168826A49686FF35F2122F8021B826239
:1014B000C9E700BF01B0FFF761BF000040F20810AC
:1014C000C2F20000FFF73ABDFEE7000090B0FFF760
:1014D00093F900240120CDE90B44CDE9094406909D
:1014E0000A904FF4E0104FF4803102250F9006A8C7
:1014F000CDE90714CDE90D51FFF72CFB20B1EFF337
:10150000108072B6FEE700BF0F20CDE901054FF451
:101510008060CDE9040401A802210394FFF712FAC8
:1015200020B1EFF3108072B6FEE700BF41F218075A
:10153000C4F20207386841F2000440F0100038603D
:101540003868C4F2010400F010000690069838686C
:101550004FF4005140F0200038603868002200F05D
:1015600020000690069838684FF4005640F00400BA
:10157000386038684FF0000800F0040006900698C4
:101580002046FFF71FF9A4F5006528460321002235
:101590004FF00309FFF716F9069606AE4FF0010A61
:1015A0004FF0020B20463146CDE907A8CDF824B014
:1015B000FEF7F6FF28463146CDE9069ACDE9088BBD
:1015C000FEF7EEFF57F8040C002140F0010047F849
:1015D000040C57F8040C002200F001000690069855
:1015E0000E20FFF773F90E20FFF760F90F2000219E
:1015F0000022FFF76BF90F20FFF758F940F20810AF
:1016000004F52051C2F200000C234FF4E13280E8CF
:101610000601C0E90388C0E90538C0F81C80FFF75F
:10162000C3FD28B1EFF3108072B600BFFEE700BF24
:1016300040F2081040F20C01C2F20000C2F20001B8
:101640000E22FFF79DFE00BF20464FF40051FFF72A
:10165000B1F86420FEF790FFF6E7010200000000F9
:101660000000000001020304060708090000000052
:101670000102030402030405060708090A0B0C0D06
:101680000E0F1010A8160008000000202000000017
:1016900028010008C81600082000002030070000BC
:1016A00044010008000000000100000010000000DC
:1016B0000024F40048656C6C6F2054686572650DF9
:0816C0000A0000000000000018
:04000005080000ED02
:00000001FF
